{
  "_format": "hh-sol-artifact-1",
  "contractName": "LandRegistry",
  "sourceName": "contracts/LandRegistry.sol",
  "abi": [
    {
      "inputs": [
        {
          "internalType": "address",
          "name": "admin",
          "type": "address"
        },
        {
          "internalType": "address",
          "name": "nftAddress",
          "type": "address"
        }
      ],
      "stateMutability": "nonpayable",
      "type": "constructor"
    },
    {
      "inputs": [],
      "name": "AccessControlBadConfirmation",
      "type": "error"
    },
    {
      "inputs": [
        {
          "internalType": "address",
          "name": "account",
          "type": "address"
        },
        {
          "internalType": "bytes32",
          "name": "neededRole",
          "type": "bytes32"
        }
      ],
      "name": "AccessControlUnauthorizedAccount",
      "type": "error"
    },
    {
      "anonymous": false,
      "inputs": [
        {
          "indexed": false,
          "internalType": "uint256",
          "name": "id",
          "type": "uint256"
        },
        {
          "indexed": false,
          "internalType": "address",
          "name": "owner",
          "type": "address"
        }
      ],
      "name": "ParcelCreated",
      "type": "event"
    },
    {
      "anonymous": false,
      "inputs": [
        {
          "indexed": false,
          "internalType": "uint256",
          "name": "id",
          "type": "uint256"
        },
        {
          "indexed": false,
          "internalType": "address",
          "name": "from",
          "type": "address"
        },
        {
          "indexed": false,
          "internalType": "address",
          "name": "to",
          "type": "address"
        }
      ],
      "name": "ParcelTransferred",
      "type": "event"
    },
    {
      "anonymous": false,
      "inputs": [
        {
          "indexed": true,
          "internalType": "bytes32",
          "name": "role",
          "type": "bytes32"
        },
        {
          "indexed": true,
          "internalType": "bytes32",
          "name": "previousAdminRole",
          "type": "bytes32"
        },
        {
          "indexed": true,
          "internalType": "bytes32",
          "name": "newAdminRole",
          "type": "bytes32"
        }
      ],
      "name": "RoleAdminChanged",
      "type": "event"
    },
    {
      "anonymous": false,
      "inputs": [
        {
          "indexed": true,
          "internalType": "bytes32",
          "name": "role",
          "type": "bytes32"
        },
        {
          "indexed": true,
          "internalType": "address",
          "name": "account",
          "type": "address"
        },
        {
          "indexed": true,
          "internalType": "address",
          "name": "sender",
          "type": "address"
        }
      ],
      "name": "RoleGranted",
      "type": "event"
    },
    {
      "anonymous": false,
      "inputs": [
        {
          "indexed": true,
          "internalType": "bytes32",
          "name": "role",
          "type": "bytes32"
        },
        {
          "indexed": true,
          "internalType": "address",
          "name": "account",
          "type": "address"
        },
        {
          "indexed": true,
          "internalType": "address",
          "name": "sender",
          "type": "address"
        }
      ],
      "name": "RoleRevoked",
      "type": "event"
    },
    {
      "inputs": [],
      "name": "DEFAULT_ADMIN_ROLE",
      "outputs": [
        {
          "internalType": "bytes32",
          "name": "",
          "type": "bytes32"
        }
      ],
      "stateMutability": "view",
      "type": "function"
    },
    {
      "inputs": [],
      "name": "REGISTRAR_ROLE",
      "outputs": [
        {
          "internalType": "bytes32",
          "name": "",
          "type": "bytes32"
        }
      ],
      "stateMutability": "view",
      "type": "function"
    },
    {
      "inputs": [
        {
          "internalType": "string",
          "name": "cadastreId",
          "type": "string"
        },
        {
          "internalType": "string",
          "name": "location",
          "type": "string"
        },
        {
          "internalType": "uint256",
          "name": "area",
          "type": "uint256"
        },
        {
          "internalType": "address",
          "name": "owner",
          "type": "address"
        },
        {
          "internalType": "string",
          "name": "metadataURI",
          "type": "string"
        },
        {
          "internalType": "bytes32",
          "name": "didHash",
          "type": "bytes32"
        }
      ],
      "name": "createParcel",
      "outputs": [],
      "stateMutability": "nonpayable",
      "type": "function"
    },
    {
      "inputs": [
        {
          "internalType": "bytes32",
          "name": "role",
          "type": "bytes32"
        }
      ],
      "name": "getRoleAdmin",
      "outputs": [
        {
          "internalType": "bytes32",
          "name": "",
          "type": "bytes32"
        }
      ],
      "stateMutability": "view",
      "type": "function"
    },
    {
      "inputs": [
        {
          "internalType": "bytes32",
          "name": "role",
          "type": "bytes32"
        },
        {
          "internalType": "address",
          "name": "account",
          "type": "address"
        }
      ],
      "name": "grantRole",
      "outputs": [],
      "stateMutability": "nonpayable",
      "type": "function"
    },
    {
      "inputs": [
        {
          "internalType": "bytes32",
          "name": "role",
          "type": "bytes32"
        },
        {
          "internalType": "address",
          "name": "account",
          "type": "address"
        }
      ],
      "name": "hasRole",
      "outputs": [
        {
          "internalType": "bool",
          "name": "",
          "type": "bool"
        }
      ],
      "stateMutability": "view",
      "type": "function"
    },
    {
      "inputs": [
        {
          "internalType": "uint256",
          "name": "",
          "type": "uint256"
        },
        {
          "internalType": "uint256",
          "name": "",
          "type": "uint256"
        }
      ],
      "name": "history",
      "outputs": [
        {
          "internalType": "address",
          "name": "",
          "type": "address"
        }
      ],
      "stateMutability": "view",
      "type": "function"
    },
    {
      "inputs": [],
      "name": "nextId",
      "outputs": [
        {
          "internalType": "uint256",
          "name": "",
          "type": "uint256"
        }
      ],
      "stateMutability": "view",
      "type": "function"
    },
    {
      "inputs": [],
      "name": "nft",
      "outputs": [
        {
          "internalType": "contract LandNFT",
          "name": "",
          "type": "address"
        }
      ],
      "stateMutability": "view",
      "type": "function"
    },
    {
      "inputs": [
        {
          "internalType": "uint256",
          "name": "",
          "type": "uint256"
        }
      ],
      "name": "parcels",
      "outputs": [
        {
          "internalType": "uint256",
          "name": "id",
          "type": "uint256"
        },
        {
          "internalType": "string",
          "name": "cadastreId",
          "type": "string"
        },
        {
          "internalType": "string",
          "name": "location",
          "type": "string"
        },
        {
          "internalType": "uint256",
          "name": "area",
          "type": "uint256"
        },
        {
          "internalType": "address",
          "name": "owner",
          "type": "address"
        },
        {
          "internalType": "string",
          "name": "metadataURI",
          "type": "string"
        },
        {
          "internalType": "bytes32",
          "name": "didHash",
          "type": "bytes32"
        },
        {
          "internalType": "bool",
          "name": "exists",
          "type": "bool"
        }
      ],
      "stateMutability": "view",
      "type": "function"
    },
    {
      "inputs": [
        {
          "internalType": "bytes32",
          "name": "role",
          "type": "bytes32"
        },
        {
          "internalType": "address",
          "name": "callerConfirmation",
          "type": "address"
        }
      ],
      "name": "renounceRole",
      "outputs": [],
      "stateMutability": "nonpayable",
      "type": "function"
    },
    {
      "inputs": [
        {
          "internalType": "bytes32",
          "name": "role",
          "type": "bytes32"
        },
        {
          "internalType": "address",
          "name": "account",
          "type": "address"
        }
      ],
      "name": "revokeRole",
      "outputs": [],
      "stateMutability": "nonpayable",
      "type": "function"
    },
    {
      "inputs": [
        {
          "internalType": "bytes4",
          "name": "interfaceId",
          "type": "bytes4"
        }
      ],
      "name": "supportsInterface",
      "outputs": [
        {
          "internalType": "bool",
          "name": "",
          "type": "bool"
        }
      ],
      "stateMutability": "view",
      "type": "function"
    },
    {
      "inputs": [
        {
          "internalType": "uint256",
          "name": "id",
          "type": "uint256"
        },
        {
          "internalType": "address",
          "name": "newOwner",
          "type": "address"
        },
        {
          "internalType": "bytes32",
          "name": "didHash",
          "type": "bytes32"
        }
      ],
      "name": "transferParcel",
      "outputs": [],
      "stateMutability": "nonpayable",
      "type": "function"
    }
  ],
  "bytecode": "0x60806040523480156200001157600080fd5b5060405162001f0438038062001f048339818101604052810190620000379190620002a8565b6200004c6000801b83620000c960201b60201c565b506200007f7fedcc084d3dcd65a1f7f23c65c46722faca6953d28e43150a467cf43e5c30923883620000c960201b60201c565b5080600160006101000a81548173ffffffffffffffffffffffffffffffffffffffff021916908373ffffffffffffffffffffffffffffffffffffffff1602179055505050620002ef565b6000620000dd8383620001cc60201b60201c565b620001c157600160008085815260200190815260200160002060000160008473ffffffffffffffffffffffffffffffffffffffff1673ffffffffffffffffffffffffffffffffffffffff16815260200190815260200160002060006101000a81548160ff0219169083151502179055506200015d6200023660201b60201c565b73ffffffffffffffffffffffffffffffffffffffff168273ffffffffffffffffffffffffffffffffffffffff16847f2f8788117e7eff1d82e926ec794901d17c78024a50270940304540a733656f0d60405160405180910390a460019050620001c6565b600090505b92915050565b600080600084815260200190815260200160002060000160008373ffffffffffffffffffffffffffffffffffffffff1673ffffffffffffffffffffffffffffffffffffffff16815260200190815260200160002060009054906101000a900460ff16905092915050565b600033905090565b600080fd5b600073ffffffffffffffffffffffffffffffffffffffff82169050919050565b6000620002708262000243565b9050919050565b620002828162000263565b81146200028e57600080fd5b50565b600081519050620002a28162000277565b92915050565b60008060408385031215620002c257620002c16200023e565b5b6000620002d28582860162000291565b9250506020620002e58582860162000291565b9150509250929050565b611c0580620002ff6000396000f3fe608060405234801561001057600080fd5b50600436106100ea5760003560e01c806361b8ce8c1161008c578063a0fa8ede11610066578063a0fa8ede1461025b578063a217fddf14610292578063d547741f146102b0578063f68e9553146102cc576100ea565b806361b8ce8c146101dd57806371d9e19e146101fb57806391d148541461022b576100ea565b80632f2ff15d116100c85780632f2ff15d1461016b57806336568abe1461018757806347ccca02146101a35780634db3d2fa146101c1576100ea565b806301ffc9a7146100ef5780630a692ce71461011f578063248a9ca31461013b575b600080fd5b61010960048036038101906101049190611038565b6102ea565b6040516101169190611080565b60405180910390f35b610139600480360381019061013491906112ab565b610364565b005b6101556004803603810190610150919061138c565b6105af565b60405161016291906113c8565b60405180910390f35b610185600480360381019061018091906113e3565b6105ce565b005b6101a1600480360381019061019c91906113e3565b6105f0565b005b6101ab61066b565b6040516101b89190611482565b60405180910390f35b6101db60048036038101906101d6919061149d565b610691565b005b6101e56109fa565b6040516101f291906114ff565b60405180910390f35b6102156004803603810190610210919061151a565b610a00565b6040516102229190611569565b60405180910390f35b610245600480360381019061024091906113e3565b610a4e565b6040516102529190611080565b60405180910390f35b61027560048036038101906102709190611584565b610ab8565b604051610289989796959493929190611630565b60405180910390f35b61029a610cc5565b6040516102a791906113c8565b60405180910390f35b6102ca60048036038101906102c591906113e3565b610ccc565b005b6102d4610cee565b6040516102e191906113c8565b60405180910390f35b60007f7965db0b000000000000000000000000000000000000000000000000000000007bffffffffffffffffffffffffffffffffffffffffffffffffffffffff1916827bffffffffffffffffffffffffffffffffffffffffffffffffffffffff1916148061035d575061035c82610d12565b5b9050919050565b7fedcc084d3dcd65a1f7f23c65c46722faca6953d28e43150a467cf43e5c30923861038e81610d7c565b600060025490506040518061010001604052808281526020018981526020018881526020018781526020018673ffffffffffffffffffffffffffffffffffffffff168152602001858152602001848152602001600115158152506003600083815260200190815260200160002060008201518160000155602082015181600101908161041a91906118c5565b50604082015181600201908161043091906118c5565b506060820151816003015560808201518160040160006101000a81548173ffffffffffffffffffffffffffffffffffffffff021916908373ffffffffffffffffffffffffffffffffffffffff16021790555060a082015181600501908161049791906118c5565b5060c0820151816006015560e08201518160070160006101000a81548160ff021916908315150217905550905050600260008154809291906104d8906119c6565b9190505550600160009054906101000a900473ffffffffffffffffffffffffffffffffffffffff1673ffffffffffffffffffffffffffffffffffffffff166340c10f1986836040518363ffffffff1660e01b815260040161053a929190611a0e565b600060405180830381600087803b15801561055457600080fd5b505af1158015610568573d6000803e3d6000fd5b505050507f8ffaa6bba227496ec72022aed1c7971c23e915257e4a20142b626e4a087a3ce0818660405161059d929190611a37565b60405180910390a15050505050505050565b6000806000838152602001908152602001600020600101549050919050565b6105d7826105af565b6105e081610d7c565b6105ea8383610d90565b50505050565b6105f8610e81565b73ffffffffffffffffffffffffffffffffffffffff168173ffffffffffffffffffffffffffffffffffffffff161461065c576040517f6697b23200000000000000000000000000000000000000000000000000000000815260040160405180910390fd5b6106668282610e89565b505050565b600160009054906101000a900473ffffffffffffffffffffffffffffffffffffffff1681565b60006003600085815260200190815260200160002090508060070160009054906101000a900460ff166106f9576040517f08c379a00000000000000000000000000000000000000000000000000000000081526004016106f090611aac565b60405180910390fd5b8060040160009054906101000a900473ffffffffffffffffffffffffffffffffffffffff1673ffffffffffffffffffffffffffffffffffffffff163373ffffffffffffffffffffffffffffffffffffffff161461078b576040517f08c379a000000000000000000000000000000000000000000000000000000000815260040161078290611b18565b60405180910390fd5b600460008581526020019081526020016000208160040160009054906101000a900473ffffffffffffffffffffffffffffffffffffffff169080600181540180825580915050600190039060005260206000200160009091909190916101000a81548173ffffffffffffffffffffffffffffffffffffffff021916908373ffffffffffffffffffffffffffffffffffffffff16021790555060008160040160009054906101000a900473ffffffffffffffffffffffffffffffffffffffff169050838260040160006101000a81548173ffffffffffffffffffffffffffffffffffffffff021916908373ffffffffffffffffffffffffffffffffffffffff160217905550828260060181905550600160009054906101000a900473ffffffffffffffffffffffffffffffffffffffff1673ffffffffffffffffffffffffffffffffffffffff1663095ea7b330876040518363ffffffff1660e01b81526004016108f5929190611a0e565b600060405180830381600087803b15801561090f57600080fd5b505af1158015610923573d6000803e3d6000fd5b50505050600160009054906101000a900473ffffffffffffffffffffffffffffffffffffffff1673ffffffffffffffffffffffffffffffffffffffff166342842e0e8286886040518463ffffffff1660e01b815260040161098693929190611b38565b600060405180830381600087803b1580156109a057600080fd5b505af11580156109b4573d6000803e3d6000fd5b505050507f26b9f0805d5ccecdc6d6f1f7d73613306cd67c0a244e342aa69b32799f5ff2b68582866040516109eb93929190611b6f565b60405180910390a15050505050565b60025481565b60046020528160005260406000208181548110610a1c57600080fd5b906000526020600020016000915091509054906101000a900473ffffffffffffffffffffffffffffffffffffffff1681565b600080600084815260200190815260200160002060000160008373ffffffffffffffffffffffffffffffffffffffff1673ffffffffffffffffffffffffffffffffffffffff16815260200190815260200160002060009054906101000a900460ff16905092915050565b6003602052806000526040600020600091509050806000015490806001018054610ae1906116f2565b80601f0160208091040260200160405190810160405280929190818152602001828054610b0d906116f2565b8015610b5a5780601f10610b2f57610100808354040283529160200191610b5a565b820191906000526020600020905b815481529060010190602001808311610b3d57829003601f168201915b505050505090806002018054610b6f906116f2565b80601f0160208091040260200160405190810160405280929190818152602001828054610b9b906116f2565b8015610be85780601f10610bbd57610100808354040283529160200191610be8565b820191906000526020600020905b815481529060010190602001808311610bcb57829003601f168201915b5050505050908060030154908060040160009054906101000a900473ffffffffffffffffffffffffffffffffffffffff1690806005018054610c29906116f2565b80601f0160208091040260200160405190810160405280929190818152602001828054610c55906116f2565b8015610ca25780601f10610c7757610100808354040283529160200191610ca2565b820191906000526020600020905b815481529060010190602001808311610c8557829003601f168201915b5050505050908060060154908060070160009054906101000a900460ff16905088565b6000801b81565b610cd5826105af565b610cde81610d7c565b610ce88383610e89565b50505050565b7fedcc084d3dcd65a1f7f23c65c46722faca6953d28e43150a467cf43e5c30923881565b60007f01ffc9a7000000000000000000000000000000000000000000000000000000007bffffffffffffffffffffffffffffffffffffffffffffffffffffffff1916827bffffffffffffffffffffffffffffffffffffffffffffffffffffffff1916149050919050565b610d8d81610d88610e81565b610f7b565b50565b6000610d9c8383610a4e565b610e7657600160008085815260200190815260200160002060000160008473ffffffffffffffffffffffffffffffffffffffff1673ffffffffffffffffffffffffffffffffffffffff16815260200190815260200160002060006101000a81548160ff021916908315150217905550610e13610e81565b73ffffffffffffffffffffffffffffffffffffffff168273ffffffffffffffffffffffffffffffffffffffff16847f2f8788117e7eff1d82e926ec794901d17c78024a50270940304540a733656f0d60405160405180910390a460019050610e7b565b600090505b92915050565b600033905090565b6000610e958383610a4e565b15610f7057600080600085815260200190815260200160002060000160008473ffffffffffffffffffffffffffffffffffffffff1673ffffffffffffffffffffffffffffffffffffffff16815260200190815260200160002060006101000a81548160ff021916908315150217905550610f0d610e81565b73ffffffffffffffffffffffffffffffffffffffff168273ffffffffffffffffffffffffffffffffffffffff16847ff6391f5c32d9c69d2a47ea670b442974b53935d1edc7fd64eb21e047a839171b60405160405180910390a460019050610f75565b600090505b92915050565b610f858282610a4e565b610fc85780826040517fe2517d3f000000000000000000000000000000000000000000000000000000008152600401610fbf929190611ba6565b60405180910390fd5b5050565b6000604051905090565b600080fd5b600080fd5b60007fffffffff0000000000000000000000000000000000000000000000000000000082169050919050565b61101581610fe0565b811461102057600080fd5b50565b6000813590506110328161100c565b92915050565b60006020828403121561104e5761104d610fd6565b5b600061105c84828501611023565b91505092915050565b60008115159050919050565b61107a81611065565b82525050565b60006020820190506110956000830184611071565b92915050565b600080fd5b600080fd5b6000601f19601f8301169050919050565b7f4e487b7100000000000000000000000000000000000000000000000000000000600052604160045260246000fd5b6110ee826110a5565b810181811067ffffffffffffffff8211171561110d5761110c6110b6565b5b80604052505050565b6000611120610fcc565b905061112c82826110e5565b919050565b600067ffffffffffffffff82111561114c5761114b6110b6565b5b611155826110a5565b9050602081019050919050565b82818337600083830152505050565b600061118461117f84611131565b611116565b9050828152602081018484840111156111a05761119f6110a0565b5b6111ab848285611162565b509392505050565b600082601f8301126111c8576111c761109b565b5b81356111d8848260208601611171565b91505092915050565b6000819050919050565b6111f4816111e1565b81146111ff57600080fd5b50565b600081359050611211816111eb565b92915050565b600073ffffffffffffffffffffffffffffffffffffffff82169050919050565b600061124282611217565b9050919050565b61125281611237565b811461125d57600080fd5b50565b60008135905061126f81611249565b92915050565b6000819050919050565b61128881611275565b811461129357600080fd5b50565b6000813590506112a58161127f565b92915050565b60008060008060008060c087890312156112c8576112c7610fd6565b5b600087013567ffffffffffffffff8111156112e6576112e5610fdb565b5b6112f289828a016111b3565b965050602087013567ffffffffffffffff81111561131357611312610fdb565b5b61131f89828a016111b3565b955050604061133089828a01611202565b945050606061134189828a01611260565b935050608087013567ffffffffffffffff81111561136257611361610fdb565b5b61136e89828a016111b3565b92505060a061137f89828a01611296565b9150509295509295509295565b6000602082840312156113a2576113a1610fd6565b5b60006113b084828501611296565b91505092915050565b6113c281611275565b82525050565b60006020820190506113dd60008301846113b9565b92915050565b600080604083850312156113fa576113f9610fd6565b5b600061140885828601611296565b925050602061141985828601611260565b9150509250929050565b6000819050919050565b600061144861144361143e84611217565b611423565b611217565b9050919050565b600061145a8261142d565b9050919050565b600061146c8261144f565b9050919050565b61147c81611461565b82525050565b60006020820190506114976000830184611473565b92915050565b6000806000606084860312156114b6576114b5610fd6565b5b60006114c486828701611202565b93505060206114d586828701611260565b92505060406114e686828701611296565b9150509250925092565b6114f9816111e1565b82525050565b600060208201905061151460008301846114f0565b92915050565b6000806040838503121561153157611530610fd6565b5b600061153f85828601611202565b925050602061155085828601611202565b9150509250929050565b61156381611237565b82525050565b600060208201905061157e600083018461155a565b92915050565b60006020828403121561159a57611599610fd6565b5b60006115a884828501611202565b91505092915050565b600081519050919050565b600082825260208201905092915050565b60005b838110156115eb5780820151818401526020810190506115d0565b60008484015250505050565b6000611602826115b1565b61160c81856115bc565b935061161c8185602086016115cd565b611625816110a5565b840191505092915050565b600061010082019050611646600083018b6114f0565b8181036020830152611658818a6115f7565b9050818103604083015261166c81896115f7565b905061167b60608301886114f0565b611688608083018761155a565b81810360a083015261169a81866115f7565b90506116a960c08301856113b9565b6116b660e0830184611071565b9998505050505050505050565b7f4e487b7100000000000000000000000000000000000000000000000000000000600052602260045260246000fd5b6000600282049050600182168061170a57607f821691505b60208210810361171d5761171c6116c3565b5b50919050565b60008190508160005260206000209050919050565b60006020601f8301049050919050565b600082821b905092915050565b6000600883026117857fffffffffffffffffffffffffffffffffffffffffffffffffffffffffffffffff82611748565b61178f8683611748565b95508019841693508086168417925050509392505050565b60006117c26117bd6117b8846111e1565b611423565b6111e1565b9050919050565b6000819050919050565b6117dc836117a7565b6117f06117e8826117c9565b848454611755565b825550505050565b600090565b6118056117f8565b6118108184846117d3565b505050565b5b81811015611834576118296000826117fd565b600181019050611816565b5050565b601f8211156118795761184a81611723565b61185384611738565b81016020851015611862578190505b61187661186e85611738565b830182611815565b50505b505050565b600082821c905092915050565b600061189c6000198460080261187e565b1980831691505092915050565b60006118b5838361188b565b9150826002028217905092915050565b6118ce826115b1565b67ffffffffffffffff8111156118e7576118e66110b6565b5b6118f182546116f2565b6118fc828285611838565b600060209050601f83116001811461192f576000841561191d578287015190505b61192785826118a9565b86555061198f565b601f19841661193d86611723565b60005b8281101561196557848901518255600182019150602085019450602081019050611940565b86831015611982578489015161197e601f89168261188b565b8355505b6001600288020188555050505b505050505050565b7f4e487b7100000000000000000000000000000000000000000000000000000000600052601160045260246000fd5b60006119d1826111e1565b91507fffffffffffffffffffffffffffffffffffffffffffffffffffffffffffffffff8203611a0357611a02611997565b5b600182019050919050565b6000604082019050611a23600083018561155a565b611a3060208301846114f0565b9392505050565b6000604082019050611a4c60008301856114f0565b611a59602083018461155a565b9392505050565b7f50617263656c20646f6573206e6f742065786973740000000000000000000000600082015250565b6000611a966015836115bc565b9150611aa182611a60565b602082019050919050565b60006020820190508181036000830152611ac581611a89565b9050919050565b7f4e6f74206f776e65720000000000000000000000000000000000000000000000600082015250565b6000611b026009836115bc565b9150611b0d82611acc565b602082019050919050565b60006020820190508181036000830152611b3181611af5565b9050919050565b6000606082019050611b4d600083018661155a565b611b5a602083018561155a565b611b6760408301846114f0565b949350505050565b6000606082019050611b8460008301866114f0565b611b91602083018561155a565b611b9e604083018461155a565b949350505050565b6000604082019050611bbb600083018561155a565b611bc860208301846113b9565b939250505056fea2646970667358221220b63eb209dae4b278e4472ef18f3a6e121e3dc926295779369c695de27ab6f1aa64736f6c63430008140033",
  "linkReferences": {},
  "deployedLinkReferences": {}
}